:020000041000EA
:10000000002008205D0100101301001015010010F0
:100010001101001011010010110100101101001058
:100020001101001011010010110100101701001042
:100030001101001011010010190100101B01001026
:100040001D0100101D0100101D0100101D010010F8
:100050001D0100101D0100101D0100101D010010E8
:100060001D0100101D010010FD1000201D010010D9
:100070001D0100101D0100101D010010D1090020FC
:100080006D1000201D0100101D0100101D01001049
:100090001D0100101D0100101D0100101D010010A8
:1000A0001D0100101D0100101D0100101D01001098
:1000B0001D0100101D0100101D0100101D01001088
:1000C0001D0100101D0100101D0100101D01001078
:1000D0001D0100101D0100101D0100101D01001068
:1000E0001D0100101D0100101D0100101D01001058
:1000F0001D0100101D0100101D0100101D01001048
:100100001D0100101D0100101D0100101D01001037
:1001100000BE00BE00BE00BE00BE00BEEFF3058004
:10012000103800BEF2EB8871F4850310348603109A
:10013000A801001090A31AE7D3DEFFFF42012110AF
:10014000FF01000080B80300793512AB4FF00000CA
:100150002049086006C881F3088810474FF05040D6
:10016000006810B14FF00000F2E70FA40ECC002998
:1001700002D000F015F8F9E71749184A002000E00E
:1001800001C19142FCD1002080F30A8814498847BC
:10019000144988471449884700BEFDE701C901C2D8
:1001A0009A42FBD3704700BF348603101001002031
:1001B000C4220020E8A7031000000820400B0820FC
:1001C00028B303100010082090160820000000003B
:1001D0007047000008ED00E0C422002070BC03203E
:1001E000415300101129001039530010F8B500BF19
:1001F000064B0749C91A891048BF0131491003D07D
:10020000044B0BB101481847704700BFC4220020BF
:10021000C42200200000000008B5054B1BB10549B1
:100220000548AFF30080BDE80840FFF7E1BF00BF1D
:1002300000000000385E0320DC1B0210037A33B993
:1002400003685A1C02601B78436008230372037A18
:10025000013B037243685A08426003F00100704793
:1002600030B5037A44688B4208DB5B1A037224FAC8
:1002700001F343608B4083EA040030BD0268551CE3
:10028000056012789A402243083342600372E8E71F
:100290002DE9F04704468846994615461AB920F8D4
:1002A000022BBDE8F087012A05D102800B780430CB
:1002B00000F8023CF5E706464FEA430A0AF1010757
:1002C000BFB226F8027B9A000021304621F0C8F91F
:1002D00043467F0008EB45005A780233013A36F86E
:1002E0002210984201F1010126F82210F4D1314682
:1002F00033460122914503F104031DD8002208F181
:10030000010C27441CF812309B00023BF05A441C9D
:10031000F45218F812300132AA423B54F2D10022B2
:10032000104613464A4501F104010DD101350AEB8F
:10033000550A06EB4A00B4E733F8020C33F804CC54
:10034000013260445880D5E731F8044C1F1A234429
:1003500021F8043C21F8027C20445B000132E1E7F3
:100360002DE9F84F04468A461F4616461AB920F86A
:10037000022BBDE8F88F012A05D102800B880430DA
:1003800020F8023CF5E705464FEA430808F1010969
:100390001FFA89F925F8029B9A000021284621F0CE
:1003A0005FF95146534606EB4602524498780333B0
:1003B000013835F820C09A420CF1010C25F820C014
:1003C000F4D128462B464FF0010C674503F1040396
:1003D0001FD88B7891F800C09B00023B91F801E098
:1003E00035F803A003310AF1010B0CEB0E2CCA44C3
:1003F0008A4225F803B024F81AC0EAD10022114637
:100400001346BA4200F104000DD1B04405EB480098
:10041000AFE733F802EC33F804AC0CF1010CD6442E
:10042000A3F802E0D1E730F8044CA3EB010C23441D
:1004300020F8043C20F802CC21445B000132E0E7C4
:100440002DE9F04F85B098460646FFF7F7FE0F46B8
:10045000034628B9084620F8023B05B0BDE8F08FF6
:100460003046FFF7EBFE082104463046FFF7F8FE62
:10047000C5B23046FFF7F4FE5FFA80F94D4504D16E
:100480000123BD703B80381DE7E704213046FFF7AC
:10049000E7FE82463046FFF7E3FE8245294601909B
:1004A00018D100240BE03046FFF7C8FE30B108EB4E
:1004B000440308F8141083F801A001340131894580
:1004C000F1D2224641463846019B05B0BDE8F04FC7
:1004D000FFF7DEBE019BA3EB0A01B1FA81F1C1F186
:1004E0002001002C59D1A945EBDB3046FFF7A6FED1
:1004F00048B13046FFF7B4FE08EB4403504408F817
:100500001450587001340135EDE73046FFF796FE80
:10051000E8B1A9EB050BBBF1070FA8BF4FF0070B24
:10052000002308EB44023046CDE90223FFF798FE92
:10053000039B029A03EB050C013350445B4582F8A0
:1005400000C0507002F10202EDD901345C4408355C
:10055000A945B6DB3046FFF771FE83460028D4D1AB
:10056000A9EB0503072BA8BF072330460293FFF72B
:1005700065FE029B60B13046FFF772FE0BEB050291
:1005800008F81420504408EB4402029B50700134D8
:100590000BF1010B9B45E8DDD9E70024D8E730B526
:1005A000037A44688B4208DB5B1A037224FA01F376
:1005B00043608B4083EA040030BD0268551C05602F
:1005C00012789A402243083342600372E8E72DE92B
:1005D000F74F0091042104461E46FFF7E0FF054651
:1005E0002046FFF7DCFF4FF00009411BB1FA81F113
:1005F00080464F464FF0080BC1F12001237A33B9F2
:100600002368581C20601B7884F808B06360237A44
:10061000013B2372636858086060D8072BD54FF000
:10062000000A4FEA0913DBB2207A30B92068421C75
:100630002260007884F808B06060207A0138207267
:10064000606842086260C20710D5454521D0204647
:100650000193FFF7A4FF019B284443EA0A0C06F824
:1006600017C006EB470C8CF8010001370AF1010AAC
:10067000BAF1080FD8D109F10109B9F1100FBDD1B4
:1006800043463A463146009803B0BDE8F04FFFF7C5
:10069000FFBD2846E1E72DE9F04F04460D461E4612
:1006A000914685B0E422DDE90E78002120F0D8FFE4
:1006B0004946C4F808903B4632462846CDF80080AB
:1006C000FFF785FFA1683B46401A4010E08180B2E9
:1006D000321A01EB4001CDF800802846FFF7B0FE4A
:1006E000A1683B46401A4010208280B2321A01EBCA
:1006F0004001CDF800802846FFF7A2FEA1683B46E6
:10070000401A4010608280B2321A01EB4001CDF8ED
:1007100000802846FFF794FEA1683B46401A40102F
:10072000A08280B2321A01EB4001CDF80080284649
:10073000FFF786FEA1683B46401A4010E08280B277
:10074000321A01EB4001CDF800802846FFF778FE11
:10075000A1683B46401A4010208380B2321A01EB58
:100760004001CDF800802846FFF76AFEA1683B46AD
:10077000401A4010608380B2321A01EB4001CDF87C
:1007800000802846FFF75CFEA3680421C31AC3F368
:100790004F0328460393FFF702FF4FF0020A8146FA
:1007A000039B04F1200BA168CA4501EB4301A6EBB2
:1007B00003022AD9A38328463B46CDF80080FFF7E1
:1007C0003FFEA36804F1AC02C51A01236D1002F8C4
:1007D00013300133182BFAD1FF23102284F8DC30B8
:1007E000642104F13E0020F03BFF1022642104F15B
:1007F0004E0020F035FF1022802104F15E0020F031
:100800002FFFA8B205B0BDE8F08F2BF8023F2846B5
:100810003B46CDF80080FFF713FEA3680AF1010AFA
:10082000C31AC3F34F03BEE70A490B4A0B681268A9
:1008300093420DD01822094802FB030001335A42AB
:1008400002F0070203F0070358BF53420B607047E2
:100850000020704728B2012064B1012068B1012056
:100860002DE9F041054600240C27094E07FB04F34F
:100870002846F15803EB060802F0C9FD18B998F8AC
:100880000400BDE8F0810134082CEFD10420F8E722
:100890003440021008B502F09EF9064B1B68002B8D
:1008A000BCBF03F57F43FF3300EB2340024BA3FBA8
:1008B000003008BD545E03208FC2F508F7B51D4B0C
:1008C0001D4E1D681D4B93F9007002F079FD3368D1
:1008D0001B6898473368DB689847194B187830BB1A
:1008E00095FBF7F5174C21684D1B022D1DDCCDE95A
:1008F0000000336868465B68984705232268124900
:1009000092FBF3F391F9005003EB8303D31A05EB49
:1009100083056B460D4F03CB47F83500012007EBED
:10092000C506024471602260F07103B0F0BD002082
:10093000FBE700BF8C560320245D03206ABB032025
:100940000DAD0320605D0320ACB303200CA2032097
:1009500038B5114B1D78C5B9FFF79CFF0F4B104AF6
:1009600093F900300F4990FBF3F0136810600A68A8
:10097000C31A9342A6BF9C1A2A462C464FF0000584
:10098000B8BFD21A0A60A54200D138BDFFF796FF62
:100990000028FAD00135F6E7BDBA03206ABB032070
:1009A000F05C03204865032008B5FFF773FF044B94
:1009B00093F9003090FBF3F0024B186008BD00BFC4
:1009C0006ABB0320F05C03202DE9F74F02F0F8F832
:1009D000594D95F9003090FBF3F8584BC3F800805F
:1009E000574B1B78002B4DD0FFF768FF554E95F9FC
:1009F00000303468DFF8609194FBF3F4D9F80070AC
:100A00003C1B012CB8BF01244F4B1B78002B3CD161
:100A100095F90020336893FBF2F32344BB4234DCA6
:100A2000DFF838B1013C484B1B7843BB95F90020F7
:100A300030689C4690FBF2F0052290FBF2F202EB4C
:100A40008202801A414A4FEA40180BEB401092F99B
:100A50000010C21D8B4218BF02F833C00133042BB3
:100A6000F8D14FF0000ADFF8EC90394BD84495F9F3
:100A7000001051452BDCFFF76BFF013CD3D203B0D4
:100A8000BDE8F08FFFF764FFB0E7FFF761FF95F96E
:100A900000203368D9F8007093FBF2F3BB4200DD0D
:100AA00000BE95F90020336893FBF2F32344BB4268
:100AB000AADD02F085F895F9003090FBF3F0A0EB89
:100AC00008000428DBDC012002F08EF89CE7326885
:100AD00092FBF1F2BA4200DD00BE98F807201D49F2
:100AE00089F8002098F80F20019089F8012098F8E3
:100AF000172089F8022098F81F2089F803201A6827
:100B000092689047002132680198013232608C4629
:100B100002460F4B92F905E00131BEF1000FB8BF5C
:100B200082F805C0042982F804C002F10802F1D15C
:100B30000AF1010A9BE700BF6ABB0320685E03203D
:100B4000BDBA03208C5603200DAD0320ACB30320A7
:100B5000245D0320A8B30320605D03200CA20320C2
:100B6000014B1860704700BF245D0320114608B593
:100B700010B1024804F032FD002008BD9E1D021095
:100B800000230121094A03641360094AC0E90011E6
:100B90001360084A43641370074AC163537093702B
:100BA000D37011700268054B1A707047545E0320B1
:100BB00050620320ACB30320A8B303206ABB032018
:100BC00030B5037A44688B4208DB5B1A037224FA5F
:100BD00001F343608B4083EA040030BD0268551C7A
:100BE000056012789A402243083342600372E8E7B6
:100BF000038870B5012B00EB430401D1807870BDF0
:100C00000023082502300A7A5B002AB90A68561CBC
:100C10000E6012780D724A600A7A013A0A724A68C6
:100C2000560802F00102134302884E609A4203D92B
:100C300042889B1AE05CE2E70430E4E701F0AEBFD3
:100C40000120704701F0AABF1422036B83F0010357
:100C500002FB0300806870474620704710B50422ED
:100C60000949044620F04EFC20B1084804F087FCF6
:100C7000002010BD0C2001F063FF0028F9D063684C
:100C8000083443600460F4E7DC1D0210E11D02102B
:100C90002DE9F843066B436B86F0010604460663B4
:100CA000002B51D090F84430D0F8488000F1340740
:100CB00043B9B0F85A00394608EB4000FFF798FFF7
:100CC00084F84400B4F84C00394608EB4000FFF7C4
:100CD0008FFF1423002103FB0642C0F3071500F029
:100CE0000F00C2E905111561072824D8DFE810F0CC
:100CF00026013301E100940008004F002E0075002A
:100D000004213846FFF75CFF054608213846FFF707
:100D100057FF142315F0FF0514BFB022C02203FBB8
:100D200006431CBF1A739A4AC0B215BF525D1A73AC
:100D3000C3E905205861636B002B40F01581002545
:100D4000142303FB0644A560BDE8F883B4F84E0005
:100D5000394608EB4000FFF74BFF1422C1074FF064
:100D6000B00158BF00EBD070254495F87E304CBFE1
:100D70000130401002FB06424CBF40104042034489
:100D8000DBB285F87E3011730721516123E0B4F89E
:100D90005000394608EB4000FFF72AFFC2074FF02A
:100DA00014024FF0E00158BF00EBD070254495F8D5
:100DB0009E304CBF0130401002FB06424CBF401039
:100DC00040420344DBB285F89E309B01117303F06F
:100DD0007F015161DB099361ADE7B4F852003946F8
:100DE00008EB4000FFF704FF1422B021C30758BFEF
:100DF00000EBD070254495F8AE304CBF0130401068
:100E000002FB06424CBF401040420344DBB285F86F
:100E1000AE3011730121B8E7092D0CBFB4F85600AC
:100E2000B4F85400394640004044FFF7E1FE8146E3
:100E3000B4F85800254408EB4000FFF7D9FE81289C
:100E4000034622D194F8463085F88E3085F87E30FE
:100E500094F9452004EB420090F8EE1084F8451018
:100E600095F8BE1001F1010C85F8BEC0C1B985F836
:100E7000DE2085F8CE201422902102FB064280F865
:100E8000EF901173C2F81490A5E780281BBF85F876
:100E90008E3085F87E3095F88E3084F84630D7E76E
:100EA00095F9DE1004EB410181F8EE2085F8DE2093
:100EB000E1E7254495F8BE30012B27D904EB430325
:100EC000B3F85E00394608EB4000FFF791FE95F855
:100ED000BE30013B85F8BE3095F9CE3004EB4302BD
:100EE00092F9EE20B0B985F8CE2094F8451004EBC5
:100EF000430282F8EE1084F845301423802103FB6E
:100F0000064392F8EF2019735A6114E70020DEE7D8
:100F10001346013804EB4301012891F9EE20F7D183
:100F200095F9DE00904208BF85F8DE3004EB4203FD
:100F300093F9EE3081F8EE301346D6E703213846B8
:100F4000FFF73EFE1423B02203FB06431A73104A38
:100F50000244927AD8E7FF2203FB06431A732F223A
:100F60001A6100236363E6E694F84450013DEDB254
:100F700084F84450002D7FF4E2AEB4F85C003946AA
:100F800008EB4000FFF734FEFF280544F5D0D7E614
:100F90009440021010B51424026B04FB02030833C2
:100FA0000B60FFF775FE012010BD002310B502682D
:100FB000ADF5027D12684360C0E90D2303638360D1
:100FC00080F83C304FF400730446019302AB00F507
:100FD000927200F13401009340304FF4C073FFF778
:100FE0005AFB2046FFF754FE0DF5027D10BD70B58B
:100FF000044640F224400E4601F0A2FD0C230546B3
:1010000003FB06440460FFF7D0FF284670BD4FF095
:101010000043C36003606FF00043C0E901337047D1
:1010200083688B4205DD81604368934206DD426040
:101030007047C3688B42B8BFC160F5E7036893424D
:10104000B8BF026070470000F8B5076846790446EB
:1010500038460D4620F03AFD26B12379834201D966
:101060000020F8BDA379834213D2FA5CAA4212BFD2
:1010700000230133DBB2A3710023E371206820F069
:1010800025FDA3798342EBD394F90730B342E7DB24
:1010900003E094F90730B34203DB00230120E3802F
:1010A000DFE7024AD55401335BB2E6E78EB6032090
:1010B0000B4642790149184620F092BC8EB60320B7
:1010C000704770477047704770B505460024074E5B
:1010D00088B0AC4201D108B070BD0134234632461D
:1010E0002021684601F087FCF3E700BF0B1E0210C9
:1010F000704710B50B1482B25A430414634389B28B
:1011000080B24843614311441B04000C0844184456
:1011100010BD0A4680EAE07182EAE273A1EBE07159
:10112000A3EBE273B3EBA13F10B5044607DC90EAF2
:10113000020F54BF6FF000404FF0004010BDC117C8
:101140000904D31741EA1441000420F001FDF5E73A
:10115000034B18600123037000234370704700BFE6
:10116000906D03202DE9F04FA44B91B01B680A90BD
:10117000002B00F01B830A9AB2F800B0BBF1010FFC
:1011800040F2BB809E4B04321B6801920B930123FB
:1011900003939C4B07939C4B08939C4B0693019B9A
:1011A000D8789A785D78079B52001B6842EAD5127E
:1011B00033F91220089B1B6853F82240069B24F049
:1011C0007F491F6807EB0903DA785E7812F0010E99
:1011D0001FBF9978894CC918897900EB060818BF98
:1011E00054F821108A4C08BF991D94F800C002964B
:1011F000E0454FEA920A04DDACEB0004002C0294B7
:1012000072DD844C94F800C0604509D2029EACEBBC
:101210000004A642099467DD341B02940AF1060A11
:1012200017F809404FEAC21808F4807848EA040821
:101230009C78019A063474441278234405F0010422
:1012400000EB800042EA042202EB80120B9800EBD4
:101250000209C5F345020592BAF10B0F44D8DFE845
:101260001AF0C0017D010C00FF002602530043006C
:10127000FC01F101430043004F004E46029A6AB35D
:1012800002EB820C06EB8C1C4FEA680708F0010E9B
:1012900028F0010A30469FB1B01CDD1913F8012B6C
:1012A000023012F00F041CBF0C5D00F8044C120950
:1012B0001CBF8A5C00F8032CAB42EFD106EB0A009E
:1012C000BEF1000F06D01A78013312F00F021CBFD6
:1012D0008A5C027006F5A0766645DBD1059B002B83
:1012E00057D10A9BB3F800B0039B019A0133043233
:1012F0009B45039301923FF752AF11B0BDE8F08FC9
:10130000099A02EB42021344029C002CE6D0A8F199
:10131000020B2BF003010D4648464E1C04910F961C
:101320008E1C033104EB840CA9F102020E91691C9E
:101330000233424409EB8C1C08F1FF3E09F1010421
:10134000A8F1030A0D960C9113F8021CB8F1020FD4
:1013500004F8011C0FDDBAF1050F05D9511C5D1E03
:10136000A94259D99C4257D2014613F8015C01F8B1
:10137000015F9142F9D113F8031B00F5A07060459D
:10138000517004F5A07402F5A072DDD1059B002B0D
:10139000A7D0019A937852785B0043EAD213142BBA
:1013A000029B08BF08F1FF38002B9AD0059B03FB76
:1013B00008F1002995DD4B1E052B08F1FF3E03D9EE
:1013C000BEF1020F00F2BA81029B03EB830409F124
:1013D000FF3309EB8414194409EB0E0213F8010FD3
:1013E0008B4202F8010FF9D109F5A0794C4503F5BC
:1013F000A0713FF476AF09F1FF33EDE7D06403202D
:10140000BCB001201C740320305D0320581800205C
:1014100054180020C7BB03200025214613F8017C87
:101420000C9E67F3070567F30F2567F317458619C9
:1014300067F31F6541F8045BB142FBD1049959453C
:1014400099D00F9D13F8011C41550D9D754592DAF9
:1014500041550E9D75458EDA13F8011C41558AE7FA
:10146000029A002A3FF43AAF02EB820209EB8212A1
:10147000CDF810900C9209EB080B049E1A78FF2A05
:1014800000F051815F781644032F03F1020A40F205
:1014900046813D1FAD0803F1080205EB45041444E5
:1014A0000533301D13F8012C13F802EC13F803CCAC
:1014B000120442EA0E2242EA0C020CF03F0C11F830
:1014C0000CC0033300F804CCC2F3851C11F80CC027
:1014D0009C4200F803CCC2F3053C11F80CC04FEA63
:1014E000924200F802CC8A5C00F1040000F8052C5E
:1014F000D8D1013506EB850605EB45050AEB05035A
:1015000017F003071ED01878012F00F03F028A5C05
:10151000327000F0FE805A78022F4FEA820242EACF
:10152000901202F03F00085C707000F0F58098782F
:101530000336000140EA921202F03F028A5C033354
:1015400006F8012C5E4599D1049A0C9802F5A07218
:10155000904204920BF5A07B8FD1BFE6CA46029A57
:10156000002A3FF4C1AE02EB820B0AEB8B1B0AEBA5
:10157000080E56461A78FF2A00F0C18093F801C081
:101580001644BCF1010F03F1020440F2B680ACF145
:1015900002077F08FA1C1344B01C14F8012B023018
:1015A00002F00F054D5D120900F8045C8A5C9C4254
:1015B00000F8032CF1D1013706EB47061CF0010FB0
:1015C0001FBF13F8012B02F00F028A5C06F8012BF3
:1015D0007645CFD10AF5A07ADA450EF5A07EC8D1BE
:1015E0007CE6029A002A3FF479AE4E4602EB820274
:1015F00009EB821E4FEA680708F0010C28F0010A87
:1016000030468FB1B01CDD1913F8012B023002F007
:101610000F040C5D120900F8044C8A5CAB4200F820
:10162000032CF1D106EB0A00BCF1000F05D013F832
:10163000012B02F00F028A5C027006F5A076764557
:10164000DED14BE6099808F10102521000EB80064A
:1016500000FB023309EB861610E6099A551E002A94
:1016600000F0C780002211E058780128A0F10203A1
:1016700023F0010704EB530392BF2346BA19013349
:10168000C00744BF01320133904507D018789C1C35
:101690000244FF2802F10206E6D10133013DE1D206
:1016A000099A099502EB820A09EB8A1A57E7029A0E
:1016B000002A3FF413AECC4602EB820E09EB8E1EDD
:1016C00009EB080765461A78FF2A2ED05E782A446F
:1016D000023336B31846951910F8014B0C5D02F829
:1016E000014B9542F8D13344BD42ECD10CF5A07CBE
:1016F000E64507F5A077E5D1F0E523465EE70AF574
:10170000A07ADA4503F101030EF5A07E7FF431AF34
:10171000E4E50133013615E70233023612E753469A
:10172000EEE61546E0E701330EE70CF5A07CE64552
:1017300003F1010307F5A077C4D1CFE521F0030C35
:101740006546029B0CF1010603EB830309EB831A48
:101750000CF102070CEB080309EB080406EB080B7D
:101760000293B8444A46234605EB040E52F8040B94
:1017700043F8040B7345F9D1A94210D019F80C3085
:10178000029AB14209F8023009DD19F80630B9426F
:1017900009F80B30C4BF19F8073009F8083009F50B
:1017A000A079D14504F5A074DCD19AE5134B144A15
:1017B0001868144B11681A68B0F91031124C51F8BE
:1017C000233023F07F43063313442360B0F96A319A
:1017D000B0F94E0151F8233051F8201023F07F4327
:1017E00021F07F410633063113440A446360A2604E
:1017F000C1E44FF0FF32CA460992B0E61C740320E0
:10180000305D032058180020D0640320F0B51F4C31
:10181000246825886688AE4237D31D4E04EB8505C3
:10182000366802F0010E36F912701A4EC2F3470202
:10183000366856F82760184F26F07F463F683744D1
:101840003E7997F805C06F78AA7007F07F0747EADE
:10185000CE176F7022884FFA8CF5401B04F82200D7
:1018600004EB82025578C0F3002025F001052843DF
:1018700050702288891B04EB8202D170517863F387
:1018800046015170238801332380F0BD906D032001
:101890001C740320305D0320581800200023FFF73C
:1018A000B5BFFFF7FBBFFFF7B1BF7047024B1A6828
:1018B000024B1A60704700BFE8230020BCB0012033
:1018C00038B5054600F094F8044628B929460C4876
:1018D00003F084FE204638BD0A4B0B491B680B48B9
:1018E0005A680A6099680A321944016003F10C00D1
:1018F000074903EB8203074A08601360EAE700BF69
:10190000211E021058180020305E0320305D032095
:10191000207403202C5D03202DE9F04707460026A4
:101920004FF00C0A104BDFF844801B68DD8A7419F5
:1019300004EBD47464100AFB04F9D8F8001038469C
:10194000494401F064FD002806D1D8F800304B442A
:10195000B3F90A00BDE8F087B4BF2546661CAE4265
:10196000E5D14FF0FF30F5E7207403202C5D032014
:1019700008B5FFF7D1FF002800DA00BE08BD00005F
:10198000084B1B68984200D300BE074B1B6803EB53
:10199000800253F8200053681B1A23F07F43A3EB07
:1019A00090707047305E0320305D032008B5FFF76C
:1019B000DFFF054B054A1B6853F82030106823F001
:1019C0007F43184408BD00BF305D03205818002035
:1019D000024B1B68984200D300BE7047305E032064
:1019E00008B5FFF7C5FFBDE80840FFF7F1BF0000ED
:1019F000014B1B68184700BFACF40210704738B5A4
:101A000005461C466B681046194422461FF0E8FF45
:101A1000204638BD08B5094B1A78492A08D15A78AA
:101A2000572A05D19A78482A02D1DB78582B03D05F
:101A30000249034801F0D0FF024808BD00800410AD
:101A4000341E0210B8F4021020B100F1006000F55D
:101A5000404080007047000068B1074B074A0344CC
:101A6000934201D8830700D000BE00F15F4000F52B
:101A70007D00C0F38F007047FCFFFCDFFBFF03001D
:101A80000138704713B501A800F0D4FF04460F4B8E
:101A900001461860019B44F8103B2046FFF7DCFF2D
:101AA0000123C88088808B72CC60081DFFF7D4FFAB
:101AB00004230A688B75B2F10D0348BFA2F10A0333
:101AC0009B10088248828B8202B010BD5C5D0320AF
:101AD000042238B500F8022C0346A0F1080430F8BF
:101AE000060CFFF7B1FF82790146042A14D18288DF
:101AF00033F8040C024433F8080C8A800880FFF79E
:101B0000A3FF05460846FFF7A7FF124B68801B6836
:101B1000DA6894421BD00C462088FFF795FF837942
:101B20000146042B12D18388A28800881344A38025
:101B30002080FFF789FF05462046FFF78DFF054B04
:101B400068801B68DA688A4208BFDC6038BDD960EB
:101B5000E1E700BF5C5D03202DE9F843364B03301D
:101B6000D3F8008020F00305D8F80C300F465888D1
:101B7000FFF76AFF827905F10806042A08BF0346C9
:101B80005888FFF761FF1C4681464B4502D12B4820
:101B900001F022FF9A79042A4BD0062A38D81888F7
:101BA000FFF752FF03460446A0790428EDD1A1882F
:101BB000B6EB810F4FEA8102E7DC931B402B1BDD64
:101BC000A1199B108B8088712046FFF745FF488044
:101BD0002088A053FFF738FF06460846FFF73CFF72
:101BE00070800846FFF738FF15F10B0348BF05F179
:101BF0000E039B102080A3802088A771FFF724FF8D
:101C00000023C8F80C00204640F8083FBDE8F883E0
:101C10006088FFF719FF044603F10800FFF758FF3B
:101C20002088FFF711FF04460088FFF70DFF0346E9
:101C3000BAE71888F9E700BF5C5D03205B1E02105D
:101C4000F8B50E4B05461C680E4634F8040FFFF736
:101C5000FBFE0346A34200D1F8BD1888FFF7F4FE4F
:101C60009A790746042A07D0AA4205DBB24203DC70
:101C700003F10800FFF72CFF3B46EBE75C5D032018
:101C800070470000044B187820B1044B18680038E6
:101C900018BF0120704700BF54B603202C5E0320FC
:101CA00010B504460068FEF7CFFF074B1968074BD5
:101CB000A0FB01011A6800231FF042FF2346BDE884
:101CC0001040034A04F03CB9E46603202466032074
:101CD000492400102DE9F04705461E4F1E4EDFF83F
:101CE0007C80DFF880A007EB80093368AB4205DC1D
:101CF00000231A4A33601360BDE8F08757F8254087
:101D000094F90030E189A089B0331843090A04F03E
:101D1000AAF800234846294663616371336894F842
:101D200003C0013B33608B420EDCD8F800305A1CF4
:101D3000C8F800204AF82340BCF1000FDCD0084B63
:101D40001B78012BD1D9D7E74268013140F8042B29
:101D5000E9E700BF486B0320906B0320DC6B032096
:101D60005E180020946B0320F0B4044600200C4B56
:101D70004FF400411A6803460A4D033A9A4202DCC6
:101D8000F0BCFFF7A7BF55F8047BBE7A8E4204DA99
:101D90007F69A74224BF314618460133EEE700BFF2
:101DA000906B0320486B032038B50C460546097933
:101DB000E2B141F03F01197005F1400004F053F821
:101DC000217805F1200004F04EF8617805F16000FB
:101DD00004F049F8A17805F1800004F044F8E178B6
:101DE00005F1E000BDE8384004F03DB862791143E8
:101DF000E1E700004269F8B581711F4B5268C9B232
:101E00009D5C5B5C01356D005D43C1796D0AC5F178
:101E10003F0501F03F03AB4204460669C7782AD06C
:101E200021F03F01294390F90230C9B2C171808984
:101E30004033184306EB071604F015F8B37ADB07B6
:101E400019D5717A3F2916D0227A02F0C003A9422F
:101E50002CBF0B432B439A420DD02372317A94F955
:101E60000120A08901F0C001403219431043BDE8B0
:101E7000F84003F0F8BFF8BD0AF502100E4B70B53C
:101E80001B6881609942054628BF194622B10B4B59
:101E90001B68994228BF19460926094C6960636985
:101EA000AB4203D12046A179FFF7A4FF013E04F124
:101EB0001804F4D170BD00BFD0AF0120E865032045
:101EC000E06B032038B5016904460A884379D207DC
:101ED000C07806D401EB0012B2F912201344002B93
:101EE0002ADB5F2B2ADC9A1C63691B6903EB421314
:101EF00018B18A785208403A1344002B1B481FDB64
:101F0000B3F58E7F1EDA30F81350E389AB4212D05E
:101F100094F90030A089A0331843E9B203F0A3FF7D
:101F200094F90030A089B033290A41F02001184308
:101F300003F099FFE58138BD0C33D0E70C3BD0E7C7
:101F40000023E0E74FF4C072A3F58E73B3FBF2F108
:101F5000B3F5286F02FB1132A8BF072102F58E727C
:101F600030F8125045EA8125CFE700BF8AF502100C
:101F70002DE9F8430E46DDE908E73E49DFF804C1E4
:101F800009789846002918BF1546DCF8002008BFDC
:101F90000025002A6CD0013ACCF800204FF0000C4C
:101FA00035490C6862455DDC34490A6802F1010C70
:101FB000C1F800C0324941F82240002C58D084F8C2
:101FC00004E032886061D3074CBFF3785FFA88F38E
:101FD0006371C368637223699E4202D1E3789D42B4
:101FE00035D094F902C04FEA0518A089E57008F1D0
:101FF0000B0106EB05154CEA0000012295F80A904A
:10200000E31D31442661FFF7CFFE94F901C0A0899A
:1020100009F0010908F104014CEA00004A4604F104
:1020200008033144FFF7C0FE94F90030627AA97AC0
:10203000A089C0331143184303F015FF6B7B2A7B43
:1020400003F00F0303EB1213C3F11E03A372204628
:102050003946FFF7CFFE00232046E381BDE8F84371
:10206000FFF730BF4B680CF1010C41F8043B99E7D6
:10207000BDE8F8835E180020946B0320906B03206A
:10208000486B0320DC6B0320034B1B780BB1FEF77E
:10209000E5BD1846704700BF54B60320F8B50C4B99
:1020A00005461A68824212D000260A4C186004F5D0
:1020B00096770F2E19BF2046A16829463846002280
:1020C0000136FFF7DBFE102E04F11404F1D1F8BD48
:1020D000D0AF012098A90120034B1B7813B1002039
:1020E00003F054BF704700BF54B603202DE9F047FA
:1020F0002A4B05461B780C46002B4CD000284AD0B2
:10210000FEF79EFD800000F01BFDDFF8BC80244F31
:10211000C8F800002846FEF793FD224B386018608F
:10212000214B28461C70FEF797FD00241F4B204AC8
:102130001860204E204B1A603268204B1A603B68B2
:102140009C4219D30022316864256429A8BF642108
:10215000302410461A4B1F681A4B0132102AC3E96B
:102160000115C3E903401F6003F11403F5D10020FA
:10217000BDE8F04703F00ABF21462846D8F8009092
:10218000FEF735FF09EB840A49F824005046FFF7B3
:1021900087FD0134D3E7BDE8F08700BF54B60320C4
:1021A0002C5E032068640320C1BA03202466032048
:1021B00020A10700D0AF0120E4660320E8650320DA
:1021C000585D032098A90120D8660320034A12789D
:1021D00012B108B1FEF732BD704700BF54B60320FC
:1021E00038B5204B204CB3F9000003F00DFE002061
:1021F00003F052FE01211D48FFF7D8FB1C4B00F1F4
:1022000008021A601B4A00F59053083313601A4AFB
:1022100000F5C553043313600922184B00F5225012
:1022200024301860164B17481A6000231946164AC6
:102230001360164A50F8045B137055700133056A39
:10224000092B95709181116144F8042B02F1180259
:10225000F0D101200E4B19600E4B19600E4B187017
:1022600038BD00BF5C180020946B0320691E02106B
:10227000585D0320905E0320545D0320945E03208C
:10228000DC6B0320C4FA0210906B0320E06B032088
:10229000D86603202C5E032054B60320F8B505460B
:1022A0000024084E084F33689C4200DBF8BD57F805
:1022B00024305B69AB4203D12046FFF70BFD013CA4
:1022C0000134F0E7906B0320486B032070B5144B8A
:1022D0001B781BB303F04AFE002403F03FFE114DB0
:1022E00028460134FFF7DAFF102C05F11405F7D169
:1022F00000240D4E0D4D2B6830689C4208D300F031
:102300004DFC002333602B60BDE8704003F036BE07
:1023100050F82400FEF796FC0134ECE770BD00BFD6
:1023200054B6032098A90120D86603202C5E032010
:1023300010B5064C237843B1FFF7C8FF03F072FDD8
:102340000348FFF74DFB0023237010BD54B6032054
:10235000691E021083682DE9F041092B10D00F2B64
:1023600008BF0923142200240D4DC76802FB035542
:102370000C4EDFF8348033689C4203DBBDE8F0810B
:102380000F23EFE758F824305A69AA4206D11B7987
:102390009F4203D12046FFF79DFC013C0134EAE750
:1023A00098A90120906B0320486B03202DE9F04190
:1023B0001D4A137813F0010404D043F00203137094
:1023C000BDE8F081194E23F002031370184D3268F6
:1023D000184B194F1A602A68184B1A6033689C42D0
:1023E00014D3296810226429A8BF642164253024ED
:1023F0000020134B1E68134B013AC3E90115C3E9D2
:1024000003401E6003F11403F6D1D9E73B684FEA9D
:10241000840853F82400FEF7C8FD386801344044AE
:10242000FFF73EFCDAE700BFC8B603202C5E0320AE
:10243000D0AF012068640320D8660320E86503203C
:10244000585D032098A901202DE9F04FA9B08246DC
:1024500003A90068FEF79EFD18B3039B1A79C02AF2
:1024600000F0008120D8902A38D0B02A00F0E08017
:10247000802A38D0039B1A79FF2A40F053819B6849
:102480002F2B40F04F81A94A1368013B136043B9D9
:10249000A74A12782AB141F288300021A54A03F0F8
:1024A0004FFD29B0BDE8F08FE02A00F0EE80FF2A52
:1024B000E0D1D3E903129B68512BDBD10329D9D199
:1024C00054781378240244EA034493789A4D1C43C9
:1024D0002146286803F062FD2C60CBE7D3E903684E
:1024E000B8F1000F03D11846FFF734FFC2E79B682D
:1024F000092B3BD1A6F123032E2BBBD824233C2749
:1025000073438E4AA3F2EC4315688D4A8D491D44EE
:1025100013688D4CCE54013303F00F0313608B4BC3
:10252000B5F800901B7809F00409002B3CD0012B72
:1025300045D0874B186848B9864B874AD3F800E0E6
:1025400093460346734562DBFFF7C4FB3B4600221C
:1025500029462046CDE90068FFF70AFDB9F1000FD2
:1025600088D03B460122CDE900684BE00F2B7B4A27
:1025700007D0142404FB032414214B433746D558B9
:10258000CDE7092302F1B404F6E752F8041BD1F8B1
:1025900014B05EF8201049698B4588BF1846013396
:1025A0009C45F2DCFFF796FB6A4BD3F800C0BCF108
:1025B000080F20D90020684A03469646F0E7DFF866
:1025C00094B1DBF80030092B02D12046FFF7CCFB99
:1025D000DBF80030082B0ED1B9F1000F0ED02046E9
:1025E000FFF7C2FB3B46012229462046CDE90068A1
:1025F000FFF7BEFC02E0B9F1000FF3D13B46002229
:10260000CDE9006829462046FFF7B2FC32E752F8D0
:1026100004CB9CF8031049B95BF82010DCF814C017
:1026200049698C4528BF184601338BE71846FBE7FC
:102630009A68092A10D00F2A08BF09221421474896
:1026400001FB0200D3E90321072A07D07B2A7FF48C
:1026500011AFFFF723FE0DE70F22EFE70122FFF78F
:102660000DFC07E79A68092A0DD00F2A08BF092236
:10267000142124204A43D968394B1B6800FB0133DD
:1026800036498B50F6E60F22F2E79A68092A25D0E0
:102690000F2A08BF0922002414202F4F2546B946CF
:1026A000A3463E462D491B6900FB0218403B294AC0
:1026B000C8F8103013689B4512DB002316AAA3420A
:1026C0002AD1002204A906EB8303AA423FF4D2AE2A
:1026D00051F8040B013243F8040BF6E70F22DAE756
:1026E000D9F80000436943450FD1FFF7EBFB28AB56
:1026F00003EB8501D9F80030164A41F8903C0135CA
:102700000BF1010B09F10409D4E728AB03EB8403B7
:1027100043F8480C0134F3E752F8041B013347F83F
:10272000041BCCE75046FFF7BBFABAE66864032007
:10273000C1BA0320AD230010E4660320905E03209D
:10274000E45C032097AF0320C4AA01205E18002098
:10275000DC6B0320906B0320486B032098A90120B9
:10276000585D032070B50F4B1B78CBB1012003F0EF
:102770000DFC00250C4C0D4E636963B12269336872
:102780009A4208D294F90030E189A089B033090A4D
:10279000184303F068FB0135092D04F11804EBD14F
:1027A00070BD00BF54B60320E06B0320905E032091
:1027B000014B1870704700BF5E180020084B10B521
:1027C0001B785BB9074CA368984708B1064B1C609F
:1027D000064CA368984708B1054B1C6010BD00BFAC
:1027E000B5BA03206418002064650320D4F40210F5
:1027F000185E0320034B1B680BB11B691847184672
:10280000704700BF64650320074B10B51B680BB110
:102810005B699847054B1B6823B11B6B13B1BDE87F
:102820001040184710BD00BF64650320185E0320E8
:1028300030B4094C029D24685CB1FE2BA8BFFE2376
:102840000295E46923EAE373A44630BC82F30702ED
:102850006047204630BC704764650320024B1B680C
:102860000BB11B6A1847704764650320034B1B6854
:102870000BB15B6A18471846704700BF64650320B8
:10288000034B1B6813B19B6A03B11847704700BF25
:102890006465032070470000024B1B680BB11B6985
:1028A00018477047185E0320024B1B680BB15B6929
:1028B00018477047185E0320024B1B680BB19B69D9
:1028C00018477047185E0320034B1B680BB1DB6988
:1028D00018471846704700BF185E0320024B1B685C
:1028E0000BB11B6A18477047185E0320024B1B6828
:1028F0000BB15B6A18477047185E0320024B1B68D8
:102900000BB19B6A18477047185E032070470000A0
:102910001FB51B4B1B4ADB680F2083F4007383F049
:102920000303C3F30A03D36001F022FF4FF47A706C
:10293000002101F069FC144803AB02AA01A901F0CF
:1029400079FE18B91049114801F046F8DDE9021284
:10295000019801F03FFE172001F0BCFE17234FF055
:10296000010242EC443042EC403002F0F5FD00F050
:10297000B5F807F06DF9002005B05DF804FB00BF65
:1029800000000D4000100D40B01E0400711E02102A
:102990000649013810F8013F03B97047CA5C02F0DC
:1029A0000302022A08BF203B0370F3E7E984031007
:1029B00038B504460D4662B10023013A83541EF037
:1029C000A1FE20461FF082F8285CB0FA80F0400992
:1029D00038BD1046FCE738B505460C4649B102F053
:1029E00075FC002801DBA04202D30023601E2B549B
:1029F00038BD0846FCE70CB407B504AB53F8042B0C
:102A00000193FFF7E8FF03B05DF804EB02B07047F5
:102A10000122014B1A707047601800200022014B00
:102A20001A70704760180020704702F095BD70471B
:102A300070470000102310B50C4C0D4924F003041E
:102A4000C4F1005202F5E0228C42026006D800BEBA
:102A500024B9013B032BF7DC00BEF5E702682146F1
:102A6000044802F0BBFD204610BD00BF70BC03202F
:102A700000000320BC1E021070B505461FF026F8AA
:102A800000264408C4F12304A64204DB2846BDE81E
:102A9000704002F074BD202002F063FD0136F3E7C0
:102AA00010B54B243D2002F05CFD013CFAD10A2018
:102AB000BDE8104002F055BD10B50446FFF7F0FF29
:102AC0002046FFF7D9FFFFF7EBFF034802F057FD61
:102AD000BDE81040FFF7E4BFE41E0210FFF7A5BFFA
:102AE00000B595B0FFF70AFF10481FF04DF8C8B1C8
:102AF00001240E481FF044F80D4B0E481C701FF0C7
:102B000047F80D4B1C7000231A4619461846FFF76C
:102B10007FFF00238DF80030084BC3F800D0FFF78B
:102B200073FEFCE7FFF770FEDEE700BFC4B00120D4
:102B300059B603205C620320EBAA03202CB20120CB
:102B40004FF050431B6810B5044623B1054B1B786A
:102B50000BB101F003FF2046BDE810400121FEF754
:102B6000FBBF00BF08AD032038B54FF050431B68D2
:102B700004460D4623B1084B1B780BB101F0EEFE65
:102B80006C4301212046FEF7E7FF0546224600215F
:102B90001EF066FD284638BD08AD03204FF05043B7
:102BA0001B6810B5044623B1044B1B780BB101F030
:102BB000D5FE2046BDE81040FEF78ABF08AD0320D1
:102BC00008B501F01BFB4FF47A7200231EF0B8FF2A
:102BD0002323584308BD08B501F010FB4FF47A7267
:102BE00000231EF0ADFF08BD01F08BBA7047000056
:102BF0005A4B2DE9F0411D68CB1003EB8303B0F570
:102C0000226F05EB431511D3554B1A6862B15A6810
:102C1000002A00F0A0809A68002A00F09A80DA6802
:102C2000002A14BF0422032243F822004D4B01F076
:102C300007011B684FEA410CDB0644D44A4B4B4C5E
:102C4000AA1C05F1A20812F8011C4FEA111E01F09E
:102C50000F06C90918BF2EF0080E34F8161034F804
:102C60001EE05980A3F800E012F8021C090111F8D7
:102C70000C1002254E002E409E5B0F002F40DF5BA4
:102C80003F043E4340C04E082E409E5B8F082F40BD
:102C9000DF5B3F043E4340C0CE082E409E5B0F09E1
:102CA0002F40DF5B3F043E4340C04E092E409E5BF9
:102CB0008F092F40DF5B3F043E4340C00232904506
:102CC000C1D1BDE8F081284B284CA91C05F1A20810
:102CD00011F8012C4FEA121ED6091ABF2EF0080E69
:102CE000724602F00F0234F8122034F81EE05A80C7
:102CF000A3F800E011F8022C120112F80C200225B2
:102D000056002E409E5B17002F40DF5B3F043E4382
:102D100040C056082E409E5B97082F40DF5B3F0463
:102D20003E4340C0D6082E409E5B17092F40DF5B14
:102D30003F043E4340C056092E409E5B97092F40FA
:102D4000DF5B3F043E4340C002318845C0D1BDE84F
:102D5000F081022268E7012266E700BF18660320BF
:102D6000A064032074B20120BE8C032024FB021057
:102D700070477047014B1870704700BF6118002002
:102D80002DE9F04F034C83B02678022E04D803B00F
:102D9000BDE8F08F0BAD0320DC4B98221D680021AD
:102DA00005F698001EF05CFCC822002105F5FA60CB
:102DB0001EF056FC4FF49872002105F5D4601EF009
:102DC0004FFCD34B19784FF4187303FB01F101F555
:102DD000F071685A2944421E002A0FDD00F698005F
:102DE00001EB82012844CB7804392B4493F8D07747
:102DF00000F8017D83F8D027013AF4D1DFF8388359
:102E000098F900305A1C00F07681C24D2A68002AD9
:102E100000F0FF81C0490878C0490091C049019184
:102E2000002800F0B381002B00F0B081082B40F3A4
:102E300035820C2B00F34F8245274FF0BA0B4FF031
:102E4000D70A083B5B03B74DD01C2C4605F500792B
:102E500010F8021C10F8032CABEB010C03FB0CFC6C
:102E6000AAEB020E03FB0EFE01EB2C41C91010F879
:102E700001CC02EB2E428901D21041EAC222A7EB1B
:102E80000C0103FB01F10CEB214C42EAEC0224F8AB
:102E9000022BA14500F10300DAD1019BA24F186873
:102EA000009B1968FF2388F80030A04B1C683B7812
:102EB00034F9133050F8232022F07F420A4492F86C
:102EC00006C0137B35F81CC035F813E0984BA3F807
:102ED00000C092F807C035F81CC0A3F802C092F8F1
:102EE00008C035F81CC0A3F804C092F809C035F832
:102EF0001CC0A3F806C092F80AC035F81CC0A3F89D
:102F000008C092F80BC0A3F80CE035F81CC0A3F879
:102F10000AC092F80DC035F81CC0A3F80EC092F894
:102F20000EC035F81CC0A3F810C092F80FC035F8D9
:102F30001CC0A3F812C092F810C035F81CC0A3F84A
:102F400014C092F811C035F81CC0A3F816C092F84E
:102F500012C035F81CC0A3F818C092F813C035F899
:102F60001CC0A3F81AC092F814C035F81CC0A3F80E
:102F70001CC0527D35F81220DA837A7834F9122099
:102F800050F8222022F07F420A4492F806C035F819
:102F90001CC0A3F820C092F807C035F81CC0A3F8E5
:102FA00022C092F808C035F81CC0A3F824C092F8DB
:102FB00009C035F81CC0A3F826C092F80AC035F83D
:102FC0001CC0A3F828C092F80BC035F81CC0A3F8A9
:102FD0002AC092F80CC035F81CC0A3F82CC092F897
:102FE0000DC035F81CC0A3F82EC092F80EC035F8FD
:102FF0001CC0A3F830C092F80FC035F81CC0A3F86D
:1030000032C092F810C035F81CC0A3F834C092F852
:1030100011C035F81CC0A3F836C092F812C035F8BC
:103020001CC0A3F838C092F813C0BF7835F81CC094
:10303000A3F83AC092F814C035F81CC0A3F83CC0FD
:10304000527D35F81220DA8734F9172050F8222003
:1030500022F07F420A44917935F81110A3F840100C
:10306000D17935F81110A3F84210117A35F8111002
:10307000A3F84410517A35F81110A3F84610917A4C
:1030800035F81110A3F84810D17A35F81110A3F8CB
:103090004A10117B35F81110A3F84C10517B35F80C
:1030A0001110A3F84E10917B35F81110A3F85010B1
:1030B000D17B35F81110A3F85210117C35F811109E
:1030C000A3F85410517C35F81110A3F85610917CD8
:1030D00035F81110A3F85810D17C35F81110A3F869
:1030E0005A10117D35F81110A3F85C10527D35F897
:1030F0001220A3F85E20052E7FF449AE0D4C2378F4
:10310000C82B3FF644AE024B1B7817E0946D0320AA
:103110000AAD0320046203203CAB032058180020B2
:10312000305D032034980320A8F402101C7403209F
:10313000E00A082069BC032061180020002B40F041
:103140008580C821674D684816E00F2E06F1010200
:1031500000F3B580C2F34F02324492B227F80C203C
:10316000D6B207689142FE5403F10103A8BF11468D
:10317000B3F5A07F00F0AC802F684FEA430C37F91D
:103180001360002EE1DA00263246EAE703EB430340
:1031900002EB0323554A92F90020C2B9544DDA1CC0
:1031A000294605F5007012F8033C12F8024CDB10BA
:1031B00012F8017CE410DB0243EA841343EAD703EC
:1031C00021F8023B884202F10302ECD165E6484D4A
:1031D00048492846013A033301EB022105F5007402
:1031E00013F8022C13F803CC8A5C13F8017C11F855
:1031F0000CC0D210CF5D4FEAEC0C920142EACC2217
:1032000042EAD70220F8022B844203F10303E7D1FC
:1032100043E63948FEF7ACFB384B394901931B684C
:10322000009153F820200B6822F07F4213442B605A
:10323000FEF7A6FBA0F54070B0FA80F0314B4009D4
:1032400018702A68267898F90030E9E50023C8212B
:10325000244D254814E00F2E06F102022ADCC2F3A9
:103260004F02324492B227F80C20D6B2076891423E
:10327000FE5403F10103A8BF1146B3F5A07F27D088
:103280002F684FEA430C37F91360002E06F1010254
:10329000E1DA002627F813203246E7E700271A492B
:1032A0001B0481FB0301DB174FF0FF0ABB46C3EB96
:1032B0006103C8E5C42E07DDC8263246D6E7C42E12
:1032C00004DDC82632464CE70422CAE7042243E75D
:1032D000C9B221705BE500274FF4807B4FF40053A7
:1032E000BA46B0E52C74032028740320C4BB032025
:1032F00034980320A34002101CFB0210305D032011
:10330000581800203CAB0320398EE33808B5044838
:103310001EF03EFC1DF0BAFD1EF00EFCFAE700BFE9
:10332000B4AF012010B500F04FFB184B00211B6813
:103330001748B3F91021174B174C1B6853F822207C
:10334000164B22F07F421B681344154A1360022279
:1033500001F000F802220121124800F0FBFF0122D7
:103360000021204600F0F6FF1BF05AFC0E4802F048
:1033700089FA20461EF004FC01230C4A0C49137004
:103380000C4AC2F8E0100C4A137010BD1C740320E4
:103390005C620320305D0320B4AF01205818002088
:1033A000F0650320C4B001200D33001008AD0320E8
:1033B000FF00CEAC002006407DAF03207047000028
:1033C000024B1B780BB1FFF732BB70477DAF032078
:1033D00070477047704770B505460024944214D07A
:1033E000285D00B970BDA0F14103192B0B5D98BF9A
:1033F0002030A3F1410698BFC0B2192E9CBF2033E4
:10340000DBB2C01AEED10134E8E70020EAE738B5B4
:1034100004460D461EF05AFB294602462046BDE8EA
:103420003840FFF7D8BF704770470000024B1A784A
:103430000AB100221A707047C2BA03201FB5124B9E
:10344000022118704FF48062104804F049FF104CBC
:10345000104B2060186803A903900F4804F04CFD3E
:1034600010B90E4800F0B8FA002300931A46194626
:10347000206804F0E3FD012004F030FE0120084B39
:10348000187004B010BD00BFC3BB03209418002007
:103490004062032016FC02109C180020FC1F021042
:1034A000C2BA032010B5164B1B78FBB103281DD8F8
:1034B000C2F1FE034B4313F17E0F01FB02F216DB58
:1034C000B3F5FE4F15DA7F2193FBF1F312F17E0F76
:1034D00011DBB2F5FE4F10DA7F2192FBF1F24FF4CF
:1034E0008874084904FB00100374427410BD002363
:1034F000ECE7FF23EAE70022F1E7FF22EFE700BF56
:10350000C2BA0320D8AA01201FB50C4AC36812789A
:10351000002B08BF034652B10921094A01A8FFF751
:103520006AFA01A8FEF724FA05B05DF804FB092247
:10353000194601A8FFF73CFAF3E700BFC3BB03201D
:1035400025200210084A0346107860B1032B09D8E1
:103550004FF48871054A01FB0323987C003818BF9B
:103560000120704700207047C2BA0320D8AA01206A
:10357000032A2DE9F74F064640F38480B1F9003065
:10358000181230708C78582C7CD8C878002879D1E3
:1035900047F6FF79043A9210D200501C04313218D9
:1035A000DFF8E8C0DFF8E8E0DFF8E880751C00919C
:1035B0000192019A954266D0009A0026571E6A1C15
:1035C000114617F801AF3CF814B01AF0010F4FEA9A
:1035D000EB0218BF02EB9B021AF0020F18BF02EBBE
:1035E0005B021AF0040F18BF5A441AF0080F0AF0D1
:1035F000070A5EF82AA018BF5242A2442AEAEA7AD1
:103600001A44BAF1580FA8BF4FF0580A4245B8BF44
:1036100042464A45A8BF4A46131205F816303C7880
:103620003CF81AB014F0100F4FEAEB0318BF03EB8D
:103630009B0314F0200F18BF03EB5B0314F0400F43
:1036400018BF5B4414F0800FC4F302145EF82440EA
:1036500018BF5B42544424EAE4741344582CA8BFB6
:1036600058244345B8BF43464B45A8BF4B461A12A2
:1036700001F816200136042EA3D1009A0835043231
:10368000009296E7002003B0BDE8F08F64FB0210C3
:1036900044FB02100080FFFF38B5D0E90015A942B5
:1036A000044602D10023837438BD6D1A802DA8BF53
:1036B000802514302A46FFF75BFF2368A0742B4453
:1036C0002360F1E72DE9F04F6A4B85B01B78002BA2
:1036D00000F0CC80684B0021186804F01CFE044602
:1036E000002800F0C380654B1968002974D0884712
:1036F000634800268046827C002A54D0037C90F8E0
:1037000013905B080193437C00275B080293C9F583
:10371000807303934FF4887303FB06FB418908EB26
:103720000B030B4493F914A0236812045D6804355D
:10373000E368BB4237D9836835F804EC00930099FD
:1037400008EB0B0303EB114393F914C0039B01999E
:103750000AFB03F30CFB0933002BB8BFFF334FEA1E
:10376000232AC3F30F2311FB03FC0299F44411FB3A
:1037700003F325F804CC35F802CC0099634425F80E
:10378000023CC368194491422CD3891A816000908D
:10379000FFF782FF0098817C83680A04B3EB014F36
:1037A00021D3002383740136042E00F58870A2D142
:1037B000344AE0681378A060032B17D123680021F6
:1037C0001A6858681DF04CFF21462B4B186805B04D
:1037D000BDE8F04F04F095BD0368D3E900201DF06B
:1037E0003FFF85E7816001370435A1E71378002B9F
:1037F000EAD02368244E5F6813783946022B14BF41
:103800006FF0070C4FF0080C002340009842B6F808
:1038100000E021D90431BEF1000F08D1117801294F
:1038200022D1002198421BD803231370CCE731F931
:10383000045C02330EFB05F52D1421F8045CB6F888
:1038400000E031F9025C0EFB05F52D1421F8025C55
:10385000358865443580D9E7BEF1000FB4D1DDE786
:1038600027F813100133DDE70023DEE705B0BDE8DC
:10387000F08F00BFC2BA032040620320145E032011
:10388000D8AA01208AAD0320C88C03202DE9F84F67
:103890009846334B0D461B781746DDF82890002BD1
:1038A0005AD0032958D84FF4887400234C432D4E26
:1038B00006EB040A8AF8123017F05CFBB0F900B08E
:1038C0005846FEF75DF8072834DD274B274A1B686A
:1038D000116853F82B3023F07F43CA18CB5C032BBD
:1038E00028D15378802B25D102F1080308383351B1
:1038F0000344CAF80430B9F17F0F4CF234235488E2
:1039000020D12004B0FBF3F04FF4887303FB05666D
:10391000F0603046FFF7C0FE0023C922B3604FF4C9
:1039200049436343544304F5421404F55064B3FB24
:10393000F4F3F374424639462846FFF7B3FD2846B0
:10394000BDE8F88F04FB09F103FB09F20804D31763
:10395000090C1EF0F5F8D7E74FF0FF35EFE700BF91
:10396000C2BA0320D8AA0120305D032058180020D5
:10397000024B1878003818BF01207047C2BA0320E4
:10398000014B1860704700BF145E0320054A431CBA
:10399000DBB2002813704FF6F87318BF0823024AF1
:1039A000138070478AAD0320C88C0320054B1A781A
:1039B000022A04D01878431E58425841704701200B
:1039C000704700BF8AAD032019F0F4B919F074BA3A
:1039D00019F074BA19F0AABA0FB407B5049C0748D5
:1039E00001F0CDFD3CB105A92046019101F08CFC10
:1039F000034801F0C4FD012001F09CFC642002108A
:103A0000912B021008B50148FFF7E6FF7420021061
:103A1000EFF3108072B64FF05042D2F82C31002BE9
:103A2000FBD0BFF35F8F7047BFF35F8F4FF0504302
:103A30000022C3F82C2180F310887047CB08C25CA9
:103A4000012301F007018B401A4214BF012000201E
:103A50007047F8B505461746FFF7DAFF06462846D1
:103A60000C46FFF7EBFF18B121463846FFF7B4FFCD
:103A70000123E208A95C04F00704A3400B43AB5404
:103A80003046BDE8F840FFF7CFBF2DE9F0410546CD
:103A900014469846FFF7BCFF0E460746444502D938
:103AA0004FF0FF340CE021462846FFF7C7FF80B9EE
:103AB0000123E20804F007018B40A95C0B43AB54DF
:103AC0003846FFF7B1FF002C05DA26B10698FFF75C
:103AD00083FF0134E2E72046BDE8F08138B50446B3
:103AE000FFF796FF0122CD08635D01F007018A40D0
:103AF00023EA02036355BDE83840FFF795BF000095
:103B0000044A1078431CDBB2182B28BF1023137013
:103B1000704700BFA41800200021044B044ABFF3E3
:103B20005F8F43F8041B9342F9D17047000100D026
:103B3000800100D000F1505040308000BFF35F8F13
:103B400000230360704700000A4B1868EFF31082EF
:103B500072B601680029FCD0BFF35F8F1B68BFF30A
:103B60005F8F0021196082F3108840BF0020002180
:103B7000704700BF546503202DE9F04F2DED028BF7
:103B800085B0EFF30582D2B29B4B103A91089B4D62
:103B900018BF1D46E81A434202F00302434102EBFC
:103BA00083030092964A9FED928B52F823400123A3
:103BB000009A93400193019A05F541535A60B4F974
:103BC0000860019B002EEB6353DB676906EB460838
:103BD000284607EBC80BDBE9029A00F0E5FA4845F6
:103BE00071EB0A0145DBBAF1000F70DBDBE9043150
:103BF000844A934255D108460B69029198470028A0
:103C000065D00299D1E9002352EA03015FD0002B6D
:103C100052DAB9EB02006AEB030137F93830CBE92D
:103C20000201002B25DBD4F8149003EB430209EBCF
:103C3000C202D2E902C2604571EB020219DBA4465E
:103C40002CF8083F03EB430A09EBCA0EDEF80C2000
:103C50000292DEF808209042029A71EB020204DB25
:103C600039F93A30F446002BECDA27F83830ACF862
:103C70000060A388190442D5A3793BB10023A37146
:103C8000B4F9083004F108065A1C76D1B4F90830AA
:103C9000002B80F28D8040BF05B0BDEC028BBDE8EB
:103CA000F08FBBF80220B4F9080092B242EA00405B
:103CB000984702460B46A7E72846CDE9022300F0C5
:103CC00073FA029A039B801843EB0101A5E737F8CA
:103CD000383021692381EFF3108372B60A68002A15
:103CE000FCD0BFF35F8F628827F838202269668096
:103CF000BFF35F8F0021116083F31088B9E721695A
:103D0000EFF3108272B60B68002BFCD0BFF35F8F0D
:103D10004FF6FF71A388A1801BB22169BFF35F8FAB
:103D20000020086082F3108804F10809002BA3DB4F
:103D3000CE46626903EB430002EBC001D1E902B752
:103D4000B4F9081000290DDB01EB410802EBC80CA7
:103D5000DCF80C600296DCF80860B345029E77EB55
:103D6000060606DAAEF8003032F9303022F83010AC
:103D7000DCE7E64632F93810E4E7616903EB43001B
:103D800001EBC002B2F802C031F930701CF4004FF0
:103D90000CD0B4F908C082ED028B634504D03780A3
:103DA000228921F8302023813B466DE71646FBE748
:103DB000626903EB430302EBC303D3E90267B7F184
:103DC000FF3F08BFB6F1FF3F09D0009BA96A05EB92
:103DD00083021369701A5B1A984238BF166128462D
:103DE00000F0E2F9B042B941BFF6E9AE53E700BFD7
:103DF000FFFFFFFFFFFFFFFF00800B4000000B40B5
:103E000018620320793B0010F8B504461646C160DD
:103E10001F460D46FFF774FE4FF0504226701268A1
:103E2000BBB262704FF6FF726381013B2281A280B8
:103E300063800022182300F1505040308000206140
:103E4000BA4218D1104F1149EB1B5F425F41104B32
:103E500006EB870743F82740012404FA06F63846A4
:103E60002E6200F031FA05F501552146384600F082
:103E7000FDF92E60F8BD03FB02F1606902F1FF3C21
:103E800020F801C00132DBE700800B40793B0010D5
:103E90001862032010B5094C23694BB90321084867
:103EA00000F070F90423032220460549FFF7ACFF18
:103EB000BDE810400A21034800F05BBAA8180020B2
:103EC00000000B4054650320074A536A994206D804
:103ED000926A824205D2C81A18BF0120704700209A
:103EE00070470120704700BF00000B40F0B501464D
:103EF0000569EFF3108072B62C68002CFCD0BFF37C
:103F00005F8FB1F902504E6905EB4504E700002DC3
:103F1000A8BF36F807C006EBC404A8BFA1F802C0CA
:103F2000D1F810C0BFF35F8F4FF0000ECCF800E067
:103F300080F3108875452ADB0598C4E902232061C7
:103F40000698606160880130C0F30E00012838BF18
:103F50000120608040EA05400C69EFF3108372B6DF
:103F60002268002AFCD0BFF35F8F8A88F2538D80CD
:103F70000A69BFF35F8F0024146083F31088012265
:103F80000B789A40CB6803F501535A60F0BD4FF0AF
:103F9000FF30FBE72DE9F0479DF828700646DDE984
:103FA000088915461C4647B12A4623463046CDE9C6
:103FB0000889BDE8F047FFF799BF00F01FF9854277
:103FC00064EB01010029EFDA3846BDE8F0870346CB
:103FD000408930B5B0EB214F4FEA214201DC00208F
:103FE00030BD182458691D6904FB0200EFF31084EA
:103FF00072B62A68002AFCD0BFF35F8F428889B26C
:1040000092B28A4215D142F4004242800120987156
:104010001A69BFF35F8F0021116084F310880028B4
:10402000DDD001221978DB688A4003F501535A601C
:10403000D6E70020ECE700002DE9F043851F41F1B1
:10404000FF37A84271EB070338BF002585B038BFA2
:104050002F4604460E4600F0D1F8281A67EB0103FC
:10406000012873F1000306DA2046314605B0BDE8A9
:10407000F04300F0D1B84FF00008134B2A460093EC
:10408000CDE901883B461148FFF784FF4045EBDB53
:10409000DFF83C9028463946FFF716FF0028E3D1A9
:1040A000D9F80010EFF3108372B60A68002AFCD02A
:1040B000BFF35F8FD9F80020BFF35F8FC2F8008095
:1040C00083F3108820BFE5E7493B0010A8180020C3
:1040D0005465032038B504460D4600F08FF84FF0C4
:1040E000FF326FF00043201845EB0101824273EB71
:1040F000010438BF1946BDE8384038BF1046FFF705
:104100009BBF4FF47A71A0FB0101FFF7E3BF0000F2
:10411000F0B504460D4685B0EFF30583DBB223B15D
:1041200005B0BDE8F040FFF7CFBE144E3278D6F8A8
:104130000CC00432DCF828705CF82220A0EB070CDD
:10414000D21B944501D320BFEAE7CDE901330C4BE4
:104150000246009330460B46FFF71CFF061E294619
:104160002046DDDDFFF7B0FE00B920BF3146034831
:10417000FFF72DFF20462946D2E700BFA8180020F0
:10418000493B001010B4054B054C064AA04214BF31
:104190001846581C5DF8044BFFF75BBC7FAC03204E
:1041A00000800B40822002100346416A0A46986A4A
:1041B000596A8A42FAD17047416A9942FCD39942BE
:1041C00002D1816A914200D37047416AF7E72DE935
:1041D000F04116461D460446FFF7E6FF821951EBF3
:1041E00005034FF0000728BF012717B14FF0FF323A
:1041F00013462046BDE8F041FFF7DEBF0148FFF758
:10420000D3BF00BF00000B4002460B460148FFF73A
:10421000DEBF00BF00000B4002460B460148FFF71F
:10422000CBBF00BF00000B40084B10309B6843F829
:104230002010BFF35F8FBFF35F8F4FF0504300211B
:10424000C3F8241182F31088704700BF00ED00E02E
:104250004FF08030034B044A194604339342086000
:10426000FAD1704700E400E034E400E001224309A1
:1042700000F01F00824041B19B0003F1604303F551
:104280006143C3F880211A6070470249203341F826
:104290002320704700E100E0064B420953F822203A
:1042A000012300F01F008340134214BF01200020AF
:1042B000704700BF00E100E0024B10309B6853F8EC
:1042C0002000704700ED00E070B504460D46EFF3A6
:1042D000108672B64FF05042D2F82431002BFBD03A
:1042E000BFF35F8F2046FFF7E7FF074B984203D0ED
:1042F000A84201D000F032FB324629462046BDE8F4
:104300007040FFF791BF00BF1D010010FFF7DCBF39
:1043100010B40B46EFF3108272B64FF05044D4F84D
:1043200024110029FBD0BFF35F8F084900F110046E
:10433000896851F82410064CA14202D0994208BF66
:1043400021465DF8044BFFF76FBF00BF00ED00E0B2
:104350001D01001070B504460E461546FFF7D0FB50
:104360000146204600F005F8A680E580BFF35F8F88
:1043700070BD01F15051403189000160704710B5A6
:104380000446FFF7BDFB01462046FFF7F2FFFF237F
:104390002371BFF35F8F10BD10B50446FFF7B0FB6C
:1043A00001462046FFF7E5FFFF23A380BFF35F8FA1
:1043B00010BD000038B50848084DA84200D338BDEC
:1043C000044654F8083B1BB1FFF7E6FF2046F4E72C
:1043D000FFF7D5FFFAE700BFBC220020C42200206F
:1043E00030B503236FF0020513FB015413FB025396
:1043F00003449970015D01B15970025530BD70B52B
:10440000054614460E4651B142B1D0E901309847F5
:1044100038B1224631462868FFF7E2FF344620468D
:1044200070BD324621462868FFF7DAFFF7E7002122
:10443000012310B5047B026841738373C4739C42EB
:1044400006D8032303FB0422002302F8023C10BD1C
:1044500001335018DBB243700331F0E710B45DF85C
:10446000044BC0E901230173FFF7E1BFF8B504462F
:104470000B46E9B103276FF0020C17FB01C6056874
:104480002E447278A2B117FB02C7EB1900255F78A2
:104490005D707570FFF7B3FF394605462046FFF79C
:1044A000E5FF294602462046BDE8F840FFF7A7BFD2
:1044B0001846F8BD2DE9F84303266FF0020990462F
:1044C00016FB019703680D46D95D0446FFF7CEFF42
:1044D000B8F1000F0AD0E37B23B116FB03962368E3
:1044E00033445D70A37B03B9A573E573226838B1CB
:1044F0006FF00201032313FB001300211344997092
:1045000000233A445370BDE8F88338B5457B0A462A
:1045100029460446FFF7CEFF6073284638BD0000E9
:10452000F0B50C24444304F1804404F58034059E26
:1045300094466268071FB242FFB238BF6660012F1F
:1045400004F5405224D8012922D103251560A26820
:10455000D207FCD5226804F5805582EA4C1202F09D
:10456000E002012F2A6009D822684A4002F00302C3
:104570002A6001228A40A1681142FCD04FF40061F8
:1045800004F5005211600B4A666042F82030F0BD1D
:104590004FF400651560074D55F82020002AD9D04A
:1045A0006D69B5FBF2F5013505EB4505033DFDD21F
:1045B000D0E700BF6CAF012013B54FF480340094F6
:1045C000FFF7AEFF02B010BD014B53F8200070475B
:1045D0006CAF0120F7B5164601220D460446124F76
:1045E00011463B460520FFF7E7FF2B467543224661
:1045F00001210E48009600F077F8B4FBF5F4002294
:10460000022104200A4BFFF7D7FF23460022012195
:104610000520FFF7D1FF3B4602220021062003B010
:10462000BDE8F040FFF7C8BF006CDC0200000540A9
:10463000001BB7002DE9F0434FF4A07542F6E06E81
:10464000DFF854800EFB05FCACF53724A4F5D874D4
:1046500044451AD80724264604FB04F7BCFBF7F9A7
:1046600081450CD107FB10C9B9F1000F07D10948EA
:1046700068430860012014601E60BDE8F083013EBD
:10468000A7EB0407EAD1013CE5D1013D0F2DD9D1BB
:104690000020F2E7001BB70050F80C000C4B10B5DF
:1046A00003EB800253F8203002F5805483F040037E
:1046B00003F0C00323604FF48073C00000F180401A
:1046C00000F5203002F540524160136010BD00BF7C
:1046D000048003404FF0000242EC440042EC4000F2
:1046E0000521FFF7DBBF000070B51D4CB4FBF1F4F2
:1046F000B2FBF4F2049C240344EA03430468002C54
:104700000EDA046804F03F048C4209D18468C4F3D3
:104710000B04944204D1C46804F4EE249C421DD0DE
:10472000104D0124A84214BF0E250F25AC400E4D9C
:104730000E4E2C6005F580552C60B56834EA0505F1
:10474000FBD101602121826000F5405204321160EA
:1047500001680029FCDAC3600823136070BD00BF44
:10476000001BB7000080054000200240000002400E
:104770000B4B0C4A5A60A3F50053DA681204FCD4C0
:10478000DA68094B43EA0010504003F5F873074A12
:104790000340D360A2F58052D3681B04FCD4704759
:1047A000002010400020FE5A0000FE5A0010104069
:1047B0000C235843012300F1804000F58410416030
:1047C000036070470023DB8A002242E800F25202B5
:1047D00054BF102104211847034AD2F82838002B6F
:1047E000FBD0BFF35F8F704700000E400021044BE9
:1047F000044ABFF35F8F43F8041B9342F9D170471B
:104800000C080E402C080E40FFF7F0BF4FF42A6250
:10481000054B06491A602F22DA60054A11605A6872
:10482000002AFCDA704700BF0080044000B0FA00A4
:1048300000A004402DE9F041076B0446FB070D463C
:10484000904615D540F2013200F540531A63436A91
:10485000866A062006EB8316FFF7B6FE40F64E6327
:10486000B0FBF3F0B602B6FBF0F00021FFF7CCFC92
:10487000234653F82C2F554005EA080503F58053CD
:104880001D602763BDE8F08170B5054606200C4623
:10489000FFF79AFEC300B3FBF4F30133DC0916D033
:1048A0004FF6FE72944214D82646C3F34504002204
:1048B000284611466E62AC62FFF7BCFF0620FFF788
:1048C00083FE04EB86148000B0FBF4F070BD01267B
:1048D000EDE700244FF6FF76E9E7000038B504461F
:1048E00006200D46FFF770FE60B3174A012394427D
:1048F00014BF1A221B229340144A1549136002F573
:10490000805213608A6833EA0202FBD14FF480714F
:104910000D4B2046E21A534253410E4A22F813101F
:104920002946FFF7B1FF234653F82C2F82F070027F
:1049300003F5805302F07E021A6040F201332363D4
:104940000323A36438BD00BF00800740002002405D
:1049500000000240ACA203207047000008B50148E7
:10496000FFF73AF8A420021038B5044C044DAC42CD
:1049700000D338BD54F8043B9847F8E7981B021061
:10498000D41B021038B5044C044DAC4200D338BDE2
:1049900054F8043B9847F8E7C41B0210D41B0210DC
:1049A000054B064A06491A60064B074A13608A6897
:1049B00033EA0202FBD17047002002407F3BEFEF59
:1049C00000000240F6FFF30300300240044BDB6CB2
:1049D000B3F5004F02BF4FF48022024BDA647047F8
:1049E00000001150002011504FF0E022044BD2F88B
:1049F000881D0B43C2F8883D10EE3004704700BF9D
:104A0000030330006FF06042044B1A60044A93685D
:104A1000DB4333F06043FAD1704700BF00300240FF
:104A20000000024010B545F25320FFF7CBFEBDE871
:104A3000104003460420184710B545F25320FFF7F5
:104A4000C1FEBDE81040034601201847FFF764B8D7
:104A500010B5054B054C4FF488721846A1681CF040
:104A6000BFFFA06010BD00BF0000002000ED00E00F
:104A7000002373B5294DC5F88430FFF7C7FE012226
:104A8000274BDA636A6C012AFCD103221A63AC6BF0
:104A9000012CFCD10226052521460523214A224866
:104AA0000096FFF721FE2B462146204A204800951C
:104AB000FFF71AFE0022314604201E4BFFF77CFD53
:104AC0002146284600221C4BFFF776FD00220820D5
:104AD00011461A4BFFF770FD002209201146174BB3
:104AE000FFF76AFD002206201146134BFFF764FD15
:104AF000002207201146104BFFF75EFD0420FFF750
:104B000063FD0F4D0024B0FBF5F5E0B229460134FA
:104B1000FFF74EFE062CF8D102B070BD0000014038
:104B200000300140002F685900000540008C864786
:104B300000800540001BB70080D1F008006CDC024B
:104B400040420F009A4238BF8854704770472DE9A1
:104B5000F74F8B46DDE90C549946DDE9116313F0FC
:104B6000020180461746DDE90F2A9DF838000091C2
:104B70001DD103F0010C3EB1BCF1000F04D010B9FF
:104B800013F00C0F00D0013E4FF0300E04E0202C4B
:104B900004D005F804E00134A245F8D8BCF1000FB8
:104BA00005D04FF0300CB44201D2202C20D1D906D0
:104BB00017D5590521D404B3544501D0B4421CD1B2
:104BC000611E19D0102A64D1023C9A061DD4202CF3
:104BD0001DD078222A550134202C18D030222A5595
:104BE0000134202C13D038B32D222A5501340FE084
:104BF00005F804C00134D6E70C46102AE5D0022A95
:104C0000EAD1202C03D06222E4E7202C12D1202408
:104C10009B072AD03A4625441444A24229D1009B3E
:104C200023B1D51BAE4207EB05042BD8204603B0B9
:104C3000BDE8F08F5822CDE7590701D52B22D4E7E4
:104C40001A07E5D52022D0E74B4659462020C04719
:104C50000AF1010A019B564503EB0A02F4D8321B04
:104C6000B44288BF00223A44D5E73B1BA2460193D9
:104C7000F0E702F1010A4B46594615F8010DC0470D
:104C80005246CAE74B46224659462020C0470135C6
:104C9000C8E7022A0C46A1D1B5E72DE9F04391B04F
:104CA000189D1A9E1D9F0DB927F010077C0500D591
:104CB00015B317F0200F14BF4FF0410E4FF0610EE7
:104CC000AC4600250DF12008AEF10A0EBCFBF6F94A
:104CD00006FB19C95FFA89F4B9F1090F94BF3034A2
:104CE0007444E4B2B44508F8014B05F10105BCFB7E
:104CF000F6F401D3202D10D11C9C069705941B9C23
:104D0000CDE903649DF86440CDE9015408AC0094FA
:104D1000FFF71DFF11B0BDE8F083A446D6E72DE9EB
:104D2000F04F95B0269ECDE90A23DDE91E74DDE93A
:104D3000229B57EA040308BF26F010067205CDE94E
:104D4000080102D557EA040337D016F0200F14BF2C
:104D50004123612300250DF1300AA3F10A08214601
:104D60004A465B4638461CF0EBFED2B2092A94BF95
:104D7000303242444F45D2B274EB0B0405F10105C9
:104D80000AF8012B01D3202D14D1259B06960593FB
:104D9000249BDDE90801CDE903939DF88030CDE93E
:104DA00001530CAB0093DDE90A23FFF7D0FE15B0E9
:104DB000BDE8F08F07460C46D1E70025E5E708B1CE
:104DC00000F0CFBB704710B1D1E9003118477047F0
:104DD0002DE9F04F90469B46B64AB74B91B01A600A
:104DE0000B1E0A93B54B14BF8146994600251A9EA7
:104DF0009BF8000070B9454538BF2A4643464FF03E
:104E000000000A9928BF08F1FF32C847284611B0B0
:104E1000BDE8F08F25280BF1010B06D02A4643464A
:104E20000A996C1CC8472546E2E70023594611F849
:104E3000012B2B2A16D00AD8202A16D0232A17D0C5
:104E4000A2F13000092834D800270A2418E02D2ABE
:104E500005D0302AF4D143F001038B46E6E743F056
:104E60000203FAE743F00403F7E743F00803F4E72B
:104E700043F01003F1E78B4604FB0722A2F1300751
:104E8000594611F8012BA2F130000928F3D99BF8FB
:104E900000202E2A59D19BF801100BF10102A1F13B
:104EA0003000092843F4806346D800244FF00A0EEE
:104EB00011E02A2A08D156F8047B8B46002FBCBF8C
:104EC00043F002037F42E2E70027E0E702460EFBE1
:104ED0000411A1F13004104610F8011BA1F1300CAF
:104EE000BCF1090FF2D9114611F8010B6C2836D02C
:104EF0002ED868283AD06A2841D011468B461BF834
:104F0000010B672866D857283CD8252886D0A0F101
:104F10004503022B82D82A4643463F200A996C1C3F
:104F20000736C84726F00706434622463F200A991F
:104F3000C847023508365BE72A2907D156F8044BE3
:104F40000BF1020224EAE474CDE75A460024CAE7D2
:104F5000742801D07A28D0D143F48073CEE75078FA
:104F60006C28F9D143F44073911CC7E75078682846
:104F700002D043F08003C1E743F0C003F4E743F4F9
:104F80000073BBE7A0F158020F2A3FF647AF01A11B
:104F900051F822F0375000101D4E00101D4E001029
:104FA0001D4E00101D4E00101D4E00101D4E001015
:104FB0001D4E00101D4E00101D4E001037500010E9
:104FC0005B51001037500010174F0010174F0010A2
:104FD000174F0010A0F16901C9B20F293FF61EAFAB
:104FE000012249F2410C8A4012EA0C0219D10A2925
:104FF00000F0F28007297FF411AF43F021030593FD
:105000000823CDE903431023CDE9012356F8043BDF
:105010002A460093484643460A99FFF73EFE054656
:10502000E6E66F2800F03A8110D9782808D11022DE
:1050300023F00C0310E0582839D0622800F03081AA
:105040000A2223F01003642806D0F1E769284FF004
:105050000A0223F01003F6D1590548BF23F00103DB
:10506000692803F4007101D0642843D141B30736A5
:1050700026F00706B24670685AF8081BCDE9077398
:1050800000230593C30F0028029306940B46049255
:1050900002DA4B4260EB4000CDE9003043462A463D
:1050A00048460A99FFF73BFE05465646A0E643F000
:1050B0002003BCE7D14D0010F85C03204D4B0010DD
:1050C000D90506F1040A01D5316802E058060CD56D
:1050D0003178CDE90224CDE9047300294FEAD17378
:1050E0000193B8BF4942009120E01906ECD5B6F90A
:1050F0000010EEE779B1CDE907730023CDE9042371
:1051000006F1070A2AF0070A06940293FAE8022336
:10511000CDE90023C2E7D80506F1040A0DD5CDE993
:105120000473CDE9022401913368009343462A4673
:1051300048460A99FFF7B1FDB6E7590607D5317819
:10514000CDE904730023CDE902240193CBE7316854
:1051500013F0800F18BF89B2F2E713F0020426D0D3
:105160004FF0010A6B1C0B932A4643460A9916F826
:10517000040BC84774B354460B9A21E043462020E1
:105180000A99C8470AEB05020AF1010ABA45F5D3A4
:105190003A1E18BF0122002A07F1FF3308BF00237F
:1051A00007F1010A1D4408BF4FF0020ADAE7A246E0
:1051B000E8E7551C434620200A99C8472A4601348F
:1051C000A742F6D8A7EB0A03574538BF00230B9A2E
:1051D0001A440B920B9D0BE63246002C52F8046BDE
:1051E00014BF21464FF0FF310B9232463144107804
:1051F00008B18A4211D1A2EB060A13F480620D9223
:1052000002D0A24528BFA24613F002030E931BD181
:10521000AAEB05032A460C9308E00132E7E7531C8A
:105220000F93202043460A99C8470F9A0C9B1344BA
:105230009F42F4D8A7EB0A03574538BF00230AF171
:1052400001021D4403EB020AAB1B0C9304E01C4655
:1052500043462A460A99C8470C9BF51816F8010BD5
:1052600028B10D9B002BF3D0631E002CEFD10E9BB9
:1052700093B12A46AAEB050405E0561C43462020BC
:105280000A99C847324613199F42F6D8A7EB0A037A
:10529000574538BF00231D440B9EA9E50822C7E6E9
:1052A0000222C5E60CB41FB506AC54F8043B0A460E
:1052B0000094014604480394FFF78AFD04B0BDE85A
:1052C000104002B0704700BF454B001007B5009377
:1052D00013460A4601460348FFF77AFD03B05DF81E
:1052E00004FB00BF454B00101FB5CDE90201009340
:1052F00002A9134603484FF0FF32FFF769FD05B0DE
:105300005DF804FBC74D00101FB5084A034614683A
:1053100044B100914FF0FF32054803A9A047012096
:1053200004B010BD00F02BF92046F9E7F85C03202B
:10533000BF4D001000BEFDE708B5FFF7FBFF000002
:1053400038B5FFF711FB044C044DAC4200D338BD17
:1053500054F8043B9847F8E7D41B0210DC1B0210FA
:10536000034608461B68114618470000437D2DE997
:10537000F04704460D461646CBB101F1FF39002136
:105380000846DFF870808E4217DC864203DD311A52
:10539000236828449847002E07DD354415F8013C62
:1053A000A3F10D02534253412375BDE8F087036812
:1053B00011462846BDE8F0471847C1B199F80030BA
:1053C000A3F10D077B427B4119F8012F4F1C0A2ADC
:1053D0000BD153B9814203DD091A23682844984749
:1053E000404602212368984738463946CBE7237D5B
:1053F000EAE700BF86FC0210F8B50546094B0A4EE5
:105400001C68071D0CB92C60F8BD236843B13368D4
:105410000BB19C4204D1394620462A68FFF7A6FF0B
:105420002469EFE734B1012050B2012038B50B6890
:105430000546802B0C4602D10846FFF7DDFF2368A6
:105440005A1C22601C44257138BD000010B5FEF7BF
:10545000D5FE0A4A82184FF0FF3041F100036FF089
:105460000041904271EB030438BF0246BDE8104092
:1054700038BF0B4602481CF077BB00BF40420F000C
:10548000BC22002001481CF05FBB00BFBC220020F2
:105490002DE9F74F0C461D4607469146FFF7D6FF0C
:1054A000631C804603D138461CF010FB04464FF0C5
:1054B0000A0B154B154EDFF85CA0002D18BF1E46D9
:1054C000134B1D6845B9B8F1000F01D0FFF7DAFFA3
:1054D000204603B0BDE8F08F2B6893B1DAF80030B6
:1054E0000BB1AB420DD1224639462846B047B9F13F
:1054F000000F06D0012228460DF107018DF807B0F4
:10550000B0472D69DEE700BF6D53001061530010F6
:1055100034B1012050B20120084A136813B901B117
:1055200010607047834205D10029FAD118691060D4
:105530001961704703F110021B69EFE734B10120D4
:10554000044B10B51C6804B910BD636803B19847DB
:105550002469F8E734B1012008B500F015F90120FD
:1055600008BD012313B504468DF807000022194633
:105570000DF10700FFF78CFF204602B010BD38B5D3
:1055800005461CF0A3FA0123044601461A462846A4
:10559000FFF77EFFFFF7D4FF204638BD70B5A2B0FD
:1055A00004460E46FFF752FF0023224601930546AC
:1055B0003346094801A9FFF797FE019B044613B142
:1055C00001A8FFF719FFFFF7BBFF0DB1FFF75AFF67
:1055D000204622B070BD00BF2D5400100FB407B597
:1055E00004A951F8040B0191FFF7D8FF03B05DF84F
:1055F00004EB04B070470000054B1B6833B1002179
:10560000044A12689163044A10681847704700BF43
:105610001CAF0120E066032020AF0120024B1A6876
:1056200093691B07FCD47047E0660320F8B5184F58
:10563000184D3B68184EAB4214BF21252225044665
:105640003268B0B1A2B9154B3060196028461449D0
:10565000FEF73AFE01212846FEF708FE50223B687D
:105660009A6353F8342F02F0380203F580531A601E
:10567000F8BD002AFCD0986301462846FEF7F6FDE7
:1056800028460749FEF744FE044B34601C60EFE7F0
:10569000E0660320008007401CAF012020AF0120FE
:1056A000F9550010002210B50F4B1B688A4202DA30
:1056B0009C69E40611D50D49096841B150219963EF
:1056C00053F8341F01F0380103F580531960002AA4
:1056D00014BF10466FF0020010BD9C69E406FCD4B4
:1056E0001C6884540132E1E7E06603201CAF01200E
:1056F0000F4BF0B51B680F4C0D271A1B5442544139
:1057000000220D4E8A4200DBF0BD855C36F914C0E4
:10571000AC4505D1D3F818C01CF0200FFAD11F609A
:10572000D3F818C01CF0200FFAD11D600132E9E750
:10573000E066032000800740ACA2032070B5104E45
:105740000D463060101E1C4606DB10F0020F0CBF29
:1057500002210B21FEF7A2FF002C07DB14F0020F41
:105760000CBF02210B212046FEF798FF2946306826
:10577000FFF7B4F8BDE8704001210248FFF7CCBE46
:10578000E0660320C0180020064B00221B78064B61
:105790004FF4E1311B78054B05481B780123FFF7D7
:1057A000CDBF00BF308603102C860310288603105F
:1057B000008007404FF050431A6DD20701D5986D15
:1057C000704720BFF8E703BD10B50446FFF7DAF8CD
:1057D0002346BDE8104018474FF050431A6D92071A
:1057E000FCD5586540BF70472DE9F041064686B0AC
:1057F00019200F469046FEF74FFD0021054619205F
:10580000FEF734FD00240123CDE904764FF0504625
:10581000CDE90044CDE9023806AB03EB840353F82D
:10582000181C19B9336DDB0711D440BF0846FFF7C8
:10583000D3FFFFF7BFFF81420BD10134062CEBD120
:105840002946192006B0BDE8F041FEF70FBDB36D43
:10585000E8E70024E0E7000022F00303064A0B44D7
:10586000926843E903010549054843F8041CA3F184
:105870000C01FFF7B9BF00BF00ED00E0C9570010F1
:10588000C75700100449054B4FF49362994238BF43
:105890004FF0FF31FFF7E0BF680B0820400B0820F6
:1058A0000146024A0248FEF7D4B800BF2221021086
:1058B000BE8B0320182303FB0103F0B514681A4DB7
:1058C000C3F8C8409468C3F8D0401369D0F8684161
:1058D000DE4305EA161506EA56062E4205EA53038C
:1058E00004D0234309D06FF00A0017E0BBB1002CAD
:1058F000F9D056682B0D1B0700E056687340182638
:1059000006FB0107C7F8CC30D3680CB12D032C0A75
:1059100006FB01006340C0F8DC300020F0BD566893
:10592000002CE7D12346E9E72184100031F0100371
:1059300002460BD100F12F4303F5600306481B0D0F
:1059400050F8230028B9C2F8681170476FF00A00B8
:1059500070476FF00B0070474CA8012000F12F40FA
:10596000124B00F56000000D10B553F820400123E4
:10597000002A03FA01F303F1FF33C1F120000DDB2C
:10598000824210DC934023420CBF10464FF0FF30A0
:1059900010BD03FA00F22242FAD001380028F8DAEA
:1059A0006FF00800F4E74FF0FF30F1E74CA801205A
:1059B00010B5D0F86841CB79E4B113F0010F1CD1D8
:1059C00091F90530002B01DB934216D101230979AF
:1059D00000F12F408B40013B03FA02F200F560001A
:1059E000074B000D53F820301A420CBF00206FF017
:1059F000080010BD13F0040FE1E76FF00A00F8E7AC
:105A00004CA8012070B504460E461546FFF7D0FF9E
:105A100090B93179884210D3012304F12F400D4A07
:105A200000F56000000D8B40013B52F82010AB40A8
:105A30000B4342F82030284670BD33682A1833F8EB
:105A400010301232B3F5005F38BF5B1944F82230D2
:105A50000130DFE74CA8012000F12F4000F5600085
:105A6000000D022809D0064A064B012808BF1A4635
:105A700001EB80010448FDF7ECBF044AF8E700BFE2
:105A8000442102108221021081AC03206021021007
:105A900000F12F4000F56000000D01EB800101488E
:105AA000FEF71CB881AC032013B500F12F4000F5C0
:105AB0006000084B000D840000932246E31C06485A
:105AC000FDF7E3FF8442CCBF4FF0FF30001B02B074
:105AD00010BD00BFA421021081AC0320F8B50D4613
